{
  "contractName": "MintNft",
  "abi": [
    {
      "inputs": [],
      "stateMutability": "nonpayable",
      "type": "constructor"
    },
    {
      "anonymous": false,
      "inputs": [
        {
          "indexed": true,
          "internalType": "address",
          "name": "owner",
          "type": "address"
        },
        {
          "indexed": true,
          "internalType": "address",
          "name": "approved",
          "type": "address"
        },
        {
          "indexed": true,
          "internalType": "uint256",
          "name": "tokenId",
          "type": "uint256"
        }
      ],
      "name": "Approval",
      "type": "event"
    },
    {
      "anonymous": false,
      "inputs": [
        {
          "indexed": true,
          "internalType": "address",
          "name": "owner",
          "type": "address"
        },
        {
          "indexed": true,
          "internalType": "address",
          "name": "operator",
          "type": "address"
        },
        {
          "indexed": false,
          "internalType": "bool",
          "name": "approved",
          "type": "bool"
        }
      ],
      "name": "ApprovalForAll",
      "type": "event"
    },
    {
      "anonymous": false,
      "inputs": [
        {
          "indexed": true,
          "internalType": "address",
          "name": "previousOwner",
          "type": "address"
        },
        {
          "indexed": true,
          "internalType": "address",
          "name": "newOwner",
          "type": "address"
        }
      ],
      "name": "OwnershipTransferred",
      "type": "event"
    },
    {
      "anonymous": false,
      "inputs": [
        {
          "indexed": true,
          "internalType": "address",
          "name": "from",
          "type": "address"
        },
        {
          "indexed": true,
          "internalType": "address",
          "name": "to",
          "type": "address"
        },
        {
          "indexed": true,
          "internalType": "uint256",
          "name": "tokenId",
          "type": "uint256"
        }
      ],
      "name": "Transfer",
      "type": "event"
    },
    {
      "anonymous": false,
      "inputs": [
        {
          "indexed": false,
          "internalType": "string",
          "name": "comment",
          "type": "string"
        },
        {
          "indexed": false,
          "internalType": "uint256",
          "name": "id",
          "type": "uint256"
        }
      ],
      "name": "minted",
      "type": "event"
    },
    {
      "inputs": [
        {
          "internalType": "address",
          "name": "to",
          "type": "address"
        },
        {
          "internalType": "uint256",
          "name": "tokenId",
          "type": "uint256"
        }
      ],
      "name": "approve",
      "outputs": [],
      "stateMutability": "nonpayable",
      "type": "function"
    },
    {
      "inputs": [
        {
          "internalType": "address",
          "name": "owner",
          "type": "address"
        }
      ],
      "name": "balanceOf",
      "outputs": [
        {
          "internalType": "uint256",
          "name": "",
          "type": "uint256"
        }
      ],
      "stateMutability": "view",
      "type": "function",
      "constant": true
    },
    {
      "inputs": [],
      "name": "baseURI",
      "outputs": [
        {
          "internalType": "string",
          "name": "",
          "type": "string"
        }
      ],
      "stateMutability": "view",
      "type": "function",
      "constant": true
    },
    {
      "inputs": [
        {
          "internalType": "uint256",
          "name": "",
          "type": "uint256"
        }
      ],
      "name": "character",
      "outputs": [
        {
          "internalType": "uint256",
          "name": "level",
          "type": "uint256"
        },
        {
          "internalType": "uint256",
          "name": "nextAvaliableEvolutionTime",
          "type": "uint256"
        }
      ],
      "stateMutability": "view",
      "type": "function",
      "constant": true
    },
    {
      "inputs": [],
      "name": "cooldownForEvolutionTime1",
      "outputs": [
        {
          "internalType": "uint256",
          "name": "",
          "type": "uint256"
        }
      ],
      "stateMutability": "view",
      "type": "function",
      "constant": true
    },
    {
      "inputs": [],
      "name": "cooldownForEvolutionTime2",
      "outputs": [
        {
          "internalType": "uint256",
          "name": "",
          "type": "uint256"
        }
      ],
      "stateMutability": "view",
      "type": "function",
      "constant": true
    },
    {
      "inputs": [],
      "name": "cooldownForEvolutionTime3",
      "outputs": [
        {
          "internalType": "uint256",
          "name": "",
          "type": "uint256"
        }
      ],
      "stateMutability": "view",
      "type": "function",
      "constant": true
    },
    {
      "inputs": [
        {
          "internalType": "uint256",
          "name": "tokenId",
          "type": "uint256"
        }
      ],
      "name": "getApproved",
      "outputs": [
        {
          "internalType": "address",
          "name": "",
          "type": "address"
        }
      ],
      "stateMutability": "view",
      "type": "function",
      "constant": true
    },
    {
      "inputs": [
        {
          "internalType": "address",
          "name": "owner",
          "type": "address"
        },
        {
          "internalType": "address",
          "name": "operator",
          "type": "address"
        }
      ],
      "name": "isApprovedForAll",
      "outputs": [
        {
          "internalType": "bool",
          "name": "",
          "type": "bool"
        }
      ],
      "stateMutability": "view",
      "type": "function",
      "constant": true
    },
    {
      "inputs": [],
      "name": "name",
      "outputs": [
        {
          "internalType": "string",
          "name": "",
          "type": "string"
        }
      ],
      "stateMutability": "view",
      "type": "function",
      "constant": true
    },
    {
      "inputs": [],
      "name": "owner",
      "outputs": [
        {
          "internalType": "address",
          "name": "",
          "type": "address"
        }
      ],
      "stateMutability": "view",
      "type": "function",
      "constant": true
    },
    {
      "inputs": [
        {
          "internalType": "uint256",
          "name": "tokenId",
          "type": "uint256"
        }
      ],
      "name": "ownerOf",
      "outputs": [
        {
          "internalType": "address",
          "name": "",
          "type": "address"
        }
      ],
      "stateMutability": "view",
      "type": "function",
      "constant": true
    },
    {
      "inputs": [],
      "name": "renounceOwnership",
      "outputs": [],
      "stateMutability": "nonpayable",
      "type": "function"
    },
    {
      "inputs": [
        {
          "internalType": "address",
          "name": "from",
          "type": "address"
        },
        {
          "internalType": "address",
          "name": "to",
          "type": "address"
        },
        {
          "internalType": "uint256",
          "name": "tokenId",
          "type": "uint256"
        }
      ],
      "name": "safeTransferFrom",
      "outputs": [],
      "stateMutability": "nonpayable",
      "type": "function"
    },
    {
      "inputs": [
        {
          "internalType": "address",
          "name": "from",
          "type": "address"
        },
        {
          "internalType": "address",
          "name": "to",
          "type": "address"
        },
        {
          "internalType": "uint256",
          "name": "tokenId",
          "type": "uint256"
        },
        {
          "internalType": "bytes",
          "name": "_data",
          "type": "bytes"
        }
      ],
      "name": "safeTransferFrom",
      "outputs": [],
      "stateMutability": "nonpayable",
      "type": "function"
    },
    {
      "inputs": [
        {
          "internalType": "address",
          "name": "operator",
          "type": "address"
        },
        {
          "internalType": "bool",
          "name": "approved",
          "type": "bool"
        }
      ],
      "name": "setApprovalForAll",
      "outputs": [],
      "stateMutability": "nonpayable",
      "type": "function"
    },
    {
      "inputs": [
        {
          "internalType": "bytes4",
          "name": "interfaceId",
          "type": "bytes4"
        }
      ],
      "name": "supportsInterface",
      "outputs": [
        {
          "internalType": "bool",
          "name": "",
          "type": "bool"
        }
      ],
      "stateMutability": "view",
      "type": "function",
      "constant": true
    },
    {
      "inputs": [],
      "name": "symbol",
      "outputs": [
        {
          "internalType": "string",
          "name": "",
          "type": "string"
        }
      ],
      "stateMutability": "view",
      "type": "function",
      "constant": true
    },
    {
      "inputs": [
        {
          "internalType": "uint256",
          "name": "index",
          "type": "uint256"
        }
      ],
      "name": "tokenByIndex",
      "outputs": [
        {
          "internalType": "uint256",
          "name": "",
          "type": "uint256"
        }
      ],
      "stateMutability": "view",
      "type": "function",
      "constant": true
    },
    {
      "inputs": [],
      "name": "tokenId",
      "outputs": [
        {
          "internalType": "uint256",
          "name": "",
          "type": "uint256"
        }
      ],
      "stateMutability": "view",
      "type": "function",
      "constant": true
    },
    {
      "inputs": [
        {
          "internalType": "address",
          "name": "owner",
          "type": "address"
        },
        {
          "internalType": "uint256",
          "name": "index",
          "type": "uint256"
        }
      ],
      "name": "tokenOfOwnerByIndex",
      "outputs": [
        {
          "internalType": "uint256",
          "name": "",
          "type": "uint256"
        }
      ],
      "stateMutability": "view",
      "type": "function",
      "constant": true
    },
    {
      "inputs": [
        {
          "internalType": "uint256",
          "name": "tokenId",
          "type": "uint256"
        }
      ],
      "name": "tokenURI",
      "outputs": [
        {
          "internalType": "string",
          "name": "",
          "type": "string"
        }
      ],
      "stateMutability": "view",
      "type": "function",
      "constant": true
    },
    {
      "inputs": [],
      "name": "totalSupply",
      "outputs": [
        {
          "internalType": "uint256",
          "name": "",
          "type": "uint256"
        }
      ],
      "stateMutability": "view",
      "type": "function",
      "constant": true
    },
    {
      "inputs": [
        {
          "internalType": "address",
          "name": "from",
          "type": "address"
        },
        {
          "internalType": "address",
          "name": "to",
          "type": "address"
        },
        {
          "internalType": "uint256",
          "name": "tokenId",
          "type": "uint256"
        }
      ],
      "name": "transferFrom",
      "outputs": [],
      "stateMutability": "nonpayable",
      "type": "function"
    },
    {
      "inputs": [
        {
          "internalType": "address",
          "name": "newOwner",
          "type": "address"
        }
      ],
      "name": "transferOwnership",
      "outputs": [],
      "stateMutability": "nonpayable",
      "type": "function"
    },
    {
      "inputs": [
        {
          "internalType": "address",
          "name": "to",
          "type": "address"
        },
        {
          "internalType": "string",
          "name": "_tokenURI",
          "type": "string"
        }
      ],
      "name": "printUniqueAsset",
      "outputs": [],
      "stateMutability": "nonpayable",
      "type": "function"
    },
    {
      "inputs": [
        {
          "internalType": "uint256",
          "name": "tokenId",
          "type": "uint256"
        },
        {
          "internalType": "string",
          "name": "_tokenURI",
          "type": "string"
        }
      ],
      "name": "setTokenURI",
      "outputs": [],
      "stateMutability": "nonpayable",
      "type": "function"
    },
    {
      "inputs": [
        {
          "internalType": "uint256",
          "name": "tokenId",
          "type": "uint256"
        }
      ],
      "name": "getTokenURI",
      "outputs": [
        {
          "internalType": "string",
          "name": "",
          "type": "string"
        }
      ],
      "stateMutability": "view",
      "type": "function",
      "constant": true
    },
    {
      "inputs": [
        {
          "internalType": "uint256",
          "name": "tokenId",
          "type": "uint256"
        }
      ],
      "name": "feedNft",
      "outputs": [],
      "stateMutability": "nonpayable",
      "type": "function"
    },
    {
      "inputs": [
        {
          "internalType": "uint256",
          "name": "tokenId1",
          "type": "uint256"
        },
        {
          "internalType": "uint256",
          "name": "tokenId2",
          "type": "uint256"
        },
        {
          "internalType": "string",
          "name": "_tokenURI",
          "type": "string"
        }
      ],
      "name": "breed",
      "outputs": [],
      "stateMutability": "nonpayable",
      "type": "function"
    }
  ],
  "bytecode": "0x60806040523480156200001157600080fd5b506040518060400160405280601481526020017f45766f6c7574696f6e20436861726163746572730000000000000000000000008152506040518060400160405280600381526020017f4543530000000000000000000000000000000000000000000000000000000000815250620000966301ffc9a760e01b620001e960201b60201c565b8160069080519060200190620000ae929190620002fa565b508060079080519060200190620000c7929190620002fa565b50620000e06380ac58cd60e01b620001e960201b60201c565b620000f8635b5e139f60e01b620001e960201b60201c565b6200011063780e9d6360e01b620001e960201b60201c565b5050600062000124620002f260201b60201c565b905080600a60006101000a81548173ffffffffffffffffffffffffffffffffffffffff021916908373ffffffffffffffffffffffffffffffffffffffff1602179055508073ffffffffffffffffffffffffffffffffffffffff16600073ffffffffffffffffffffffffffffffffffffffff167f8be0079c531659141344cd1fd0a4f28419497f9722a3daafe3b4186f6b6457e060405160405180910390a3506000600d81905550600a600e819055506014600f81905550601e601081905550620003b0565b63ffffffff60e01b817bffffffffffffffffffffffffffffffffffffffffffffffffffffffff1916141562000286576040517f08c379a000000000000000000000000000000000000000000000000000000000815260040180806020018281038252601c8152602001807f4552433136353a20696e76616c696420696e746572666163652069640000000081525060200191505060405180910390fd5b6001600080837bffffffffffffffffffffffffffffffffffffffffffffffffffffffff19167bffffffffffffffffffffffffffffffffffffffffffffffffffffffff1916815260200190815260200160002060006101000a81548160ff02191690831515021790555050565b600033905090565b828054600181600116156101000203166002900490600052602060002090601f0160209004810192826200033257600085556200037e565b82601f106200034d57805160ff19168380011785556200037e565b828001600101855582156200037e579182015b828111156200037d57825182559160200191906001019062000360565b5b5090506200038d919062000391565b5090565b5b80821115620003ac57600081600090555060010162000392565b5090565b61386780620003c06000396000f3fe608060405234801561001057600080fd5b50600436106101da5760003560e01c80636c0360eb116101045780638da5cb5b116100a2578063c14370d811610071578063c14370d814610b88578063c87b56dd14610c57578063e985e9c514610cfe578063f2fde38b14610d78576101da565b80638da5cb5b1461097c57806395d89b41146109b0578063a22cb46514610a33578063b88d4fde14610a83576101da565b8063740c0047116100de578063740c0047146108475780638021c0d314610865578063871a3323146108835780638cd771f01461095e576101da565b80636c0360eb1461076257806370a08231146107e5578063715018a61461083d576101da565b80631c1eddc91161017c57806342842e0e1161014b57806342842e0e14610611578063468f25b01461067f5780634f6ccce7146106c85780636352211e1461070a576101da565b80631c1eddc91461046c57806323b872dd1461049a5780632f745c59146105085780633bb3a24d1461056a576101da565b8063095ea7b3116101b8578063095ea7b31461031d578063162094c41461036b57806317d70f7c1461043057806318160ddd1461044e576101da565b806301ffc9a7146101df57806306fdde0314610242578063081812fc146102c5575b600080fd5b61022a600480360360208110156101f557600080fd5b8101908080357bffffffffffffffffffffffffffffffffffffffffffffffffffffffff19169060200190929190505050610dbc565b60405180821515815260200191505060405180910390f35b61024a610e23565b6040518080602001828103825283818151815260200191508051906020019080838360005b8381101561028a57808201518184015260208101905061026f565b50505050905090810190601f1680156102b75780820380516001836020036101000a031916815260200191505b509250505060405180910390f35b6102f1600480360360208110156102db57600080fd5b8101908080359060200190929190505050610ec5565b604051808273ffffffffffffffffffffffffffffffffffffffff16815260200191505060405180910390f35b6103696004803603604081101561033357600080fd5b81019080803573ffffffffffffffffffffffffffffffffffffffff16906020019092919080359060200190929190505050610f60565b005b61042e6004803603604081101561038157600080fd5b8101908080359060200190929190803590602001906401000000008111156103a857600080fd5b8201836020820111156103ba57600080fd5b803590602001918460018302840111640100000000831117156103dc57600080fd5b91908080601f016020809104026020016040519081016040528093929190818152602001838380828437600081840152601f19601f8201169050808301925050505050505091929192905050506110a4565b005b6104386110b2565b6040518082815260200191505060405180910390f35b6104566110b8565b6040518082815260200191505060405180910390f35b6104986004803603602081101561048257600080fd5b81019080803590602001909291905050506110c9565b005b610506600480360360608110156104b057600080fd5b81019080803573ffffffffffffffffffffffffffffffffffffffff169060200190929190803573ffffffffffffffffffffffffffffffffffffffff1690602001909291908035906020019092919050505061124a565b005b6105546004803603604081101561051e57600080fd5b81019080803573ffffffffffffffffffffffffffffffffffffffff169060200190929190803590602001909291905050506112c0565b6040518082815260200191505060405180910390f35b6105966004803603602081101561058057600080fd5b810190808035906020019092919050505061131b565b6040518080602001828103825283818151815260200191508051906020019080838360005b838110156105d65780820151818401526020810190506105bb565b50505050905090810190601f1680156106035780820380516001836020036101000a031916815260200191505b509250505060405180910390f35b61067d6004803603606081101561062757600080fd5b81019080803573ffffffffffffffffffffffffffffffffffffffff169060200190929190803573ffffffffffffffffffffffffffffffffffffffff1690602001909291908035906020019092919050505061132d565b005b6106ab6004803603602081101561069557600080fd5b810190808035906020019092919050505061134d565b604051808381526020018281526020019250505060405180910390f35b6106f4600480360360208110156106de57600080fd5b8101908080359060200190929190505050611371565b6040518082815260200191505060405180910390f35b6107366004803603602081101561072057600080fd5b8101908080359060200190929190505050611394565b604051808273ffffffffffffffffffffffffffffffffffffffff16815260200191505060405180910390f35b61076a6113cb565b6040518080602001828103825283818151815260200191508051906020019080838360005b838110156107aa57808201518184015260208101905061078f565b50505050905090810190601f1680156107d75780820380516001836020036101000a031916815260200191505b509250505060405180910390f35b610827600480360360208110156107fb57600080fd5b81019080803573ffffffffffffffffffffffffffffffffffffffff16906020019092919050505061146d565b6040518082815260200191505060405180910390f35b610845611542565b005b61084f6116b2565b6040518082815260200191505060405180910390f35b61086d6116b8565b6040518082815260200191505060405180910390f35b61095c6004803603604081101561089957600080fd5b81019080803573ffffffffffffffffffffffffffffffffffffffff169060200190929190803590602001906401000000008111156108d657600080fd5b8201836020820111156108e857600080fd5b8035906020019184600183028401116401000000008311171561090a57600080fd5b91908080601f016020809104026020016040519081016040528093929190818152602001838380828437600081840152601f19601f8201169050808301925050505050505091929192905050506116be565b005b61096661186f565b6040518082815260200191505060405180910390f35b610984611875565b604051808273ffffffffffffffffffffffffffffffffffffffff16815260200191505060405180910390f35b6109b861189f565b6040518080602001828103825283818151815260200191508051906020019080838360005b838110156109f85780820151818401526020810190506109dd565b50505050905090810190601f168015610a255780820380516001836020036101000a031916815260200191505b509250505060405180910390f35b610a8160048036036040811015610a4957600080fd5b81019080803573ffffffffffffffffffffffffffffffffffffffff169060200190929190803515159060200190929190505050611941565b005b610b8660048036036080811015610a9957600080fd5b81019080803573ffffffffffffffffffffffffffffffffffffffff169060200190929190803573ffffffffffffffffffffffffffffffffffffffff1690602001909291908035906020019092919080359060200190640100000000811115610b0057600080fd5b820183602082011115610b1257600080fd5b80359060200191846001830284011164010000000083111715610b3457600080fd5b91908080601f016020809104026020016040519081016040528093929190818152602001838380828437600081840152601f19601f820116905080830192505050505050509192919290505050611af7565b005b610c5560048036036060811015610b9e57600080fd5b81019080803590602001909291908035906020019092919080359060200190640100000000811115610bcf57600080fd5b820183602082011115610be157600080fd5b80359060200191846001830284011164010000000083111715610c0357600080fd5b91908080601f016020809104026020016040519081016040528093929190818152602001838380828437600081840152601f19601f820116905080830192505050505050509192919290505050611b6f565b005b610c8360048036036020811015610c6d57600080fd5b8101908080359060200190929190505050611c0f565b6040518080602001828103825283818151815260200191508051906020019080838360005b83811015610cc3578082015181840152602081019050610ca8565b50505050905090810190601f168015610cf05780820380516001836020036101000a031916815260200191505b509250505060405180910390f35b610d6060048036036040811015610d1457600080fd5b81019080803573ffffffffffffffffffffffffffffffffffffffff169060200190929190803573ffffffffffffffffffffffffffffffffffffffff169060200190929190505050611ee0565b60405180821515815260200191505060405180910390f35b610dba60048036036020811015610d8e57600080fd5b81019080803573ffffffffffffffffffffffffffffffffffffffff169060200190929190505050611f74565b005b6000806000837bffffffffffffffffffffffffffffffffffffffffffffffffffffffff19167bffffffffffffffffffffffffffffffffffffffffffffffffffffffff1916815260200190815260200160002060009054906101000a900460ff169050919050565b606060068054600181600116156101000203166002900480601f016020809104026020016040519081016040528092919081815260200182805460018160011615610100020316600290048015610ebb5780601f10610e9057610100808354040283529160200191610ebb565b820191906000526020600020905b815481529060010190602001808311610e9e57829003601f168201915b5050505050905090565b6000610ed082612169565b610f25576040517f08c379a000000000000000000000000000000000000000000000000000000000815260040180806020018281038252602c815260200180613730602c913960400191505060405180910390fd5b6004600083815260200190815260200160002060009054906101000a900473ffffffffffffffffffffffffffffffffffffffff169050919050565b6000610f6b82611394565b90508073ffffffffffffffffffffffffffffffffffffffff168373ffffffffffffffffffffffffffffffffffffffff161415610ff2576040517f08c379a00000000000000000000000000000000000000000000000000000000081526004018080602001828103825260218152602001806137e06021913960400191505060405180910390fd5b8073ffffffffffffffffffffffffffffffffffffffff16611011612186565b73ffffffffffffffffffffffffffffffffffffffff161480611040575061103f8161103a612186565b611ee0565b5b611095576040517f08c379a000000000000000000000000000000000000000000000000000000000815260040180806020018281038252603881526020018061365e6038913960400191505060405180910390fd5b61109f838361218e565b505050565b6110ae8282612247565b5050565b600d5481565b60006110c460026122d1565b905090565b600c60008281526020019081526020016000206001015442116110eb57600080fd5b6003600c6000838152602001908152602001600020600001541415611178576040517f08c379a00000000000000000000000000000000000000000000000000000000081526004018080602001828103825260118152602001807f416c7265616479204d6178204c6576656c00000000000000000000000000000081525060200191505060405180910390fd5b6001600c60008381526020019081526020016000206000015414156111e157600f544201600c600083815260200190815260200160002060010181905550600c600082815260200190815260200160002060000160008154809291906001019190505550611247565b6002600c6000838152602001908152602001600020600001541415611246576010544201600c600083815260200190815260200160002060010181905550600c6000828152602001908152602001600020600001600081548092919060010191905055505b5b50565b61125b611255612186565b826122e6565b6112b0576040517f08c379a00000000000000000000000000000000000000000000000000000000081526004018080602001828103825260318152602001806138016031913960400191505060405180910390fd5b6112bb8383836123da565b505050565b600061131382600160008673ffffffffffffffffffffffffffffffffffffffff1673ffffffffffffffffffffffffffffffffffffffff16815260200190815260200160002061261d90919063ffffffff16565b905092915050565b606061132682611c0f565b9050919050565b61134883838360405180602001604052806000815250611af7565b505050565b600c6020528060005260406000206000915090508060000154908060010154905082565b60008061138883600261263790919063ffffffff16565b50905080915050919050565b60006113c4826040518060600160405280602981526020016136e56029913960026126639092919063ffffffff16565b9050919050565b606060098054600181600116156101000203166002900480601f0160208091040260200160405190810160405280929190818152602001828054600181600116156101000203166002900480156114635780601f1061143857610100808354040283529160200191611463565b820191906000526020600020905b81548152906001019060200180831161144657829003601f168201915b5050505050905090565b60008073ffffffffffffffffffffffffffffffffffffffff168273ffffffffffffffffffffffffffffffffffffffff1614156114f4576040517f08c379a000000000000000000000000000000000000000000000000000000000815260040180806020018281038252602a8152602001806136bb602a913960400191505060405180910390fd5b61153b600160008473ffffffffffffffffffffffffffffffffffffffff1673ffffffffffffffffffffffffffffffffffffffff168152602001908152602001600020612682565b9050919050565b61154a612186565b73ffffffffffffffffffffffffffffffffffffffff16611568611875565b73ffffffffffffffffffffffffffffffffffffffff16146115f1576040517f08c379a00000000000000000000000000000000000000000000000000000000081526004018080602001828103825260208152602001807f4f776e61626c653a2063616c6c6572206973206e6f7420746865206f776e657281525060200191505060405180910390fd5b600073ffffffffffffffffffffffffffffffffffffffff16600a60009054906101000a900473ffffffffffffffffffffffffffffffffffffffff1673ffffffffffffffffffffffffffffffffffffffff167f8be0079c531659141344cd1fd0a4f28419497f9722a3daafe3b4186f6b6457e060405160405180910390a36000600a60006101000a81548173ffffffffffffffffffffffffffffffffffffffff021916908373ffffffffffffffffffffffffffffffffffffffff160217905550565b60105481565b600f5481565b60011515600b6000600d54815260200190815260200160002060009054906101000a900460ff161515141561175b576040517f08c379a00000000000000000000000000000000000000000000000000000000081526004018080602001828103825260148152602001807f417373657420616c72656164792065786973747300000000000000000000000081525060200191505060405180910390fd5b6001600b6000600d54815260200190815260200160002060006101000a81548160ff0219169083151502179055506000600d549050600d600081548092919060010191905055506117ac8382612697565b6117b68183612247565b604051806040016040528060018152602001600e544201815250600c600083815260200190815260200160002060008201518160000155602082015181600101559050507f0ecd636064013af50b77d5437f5a7fb9aed532a69a677440d069bdd4aab1a9bf816040518080602001838152602001828103825260128152602001807f53756363657366756c6c79204d696e74656400000000000000000000000000008152506020019250505060405180910390a1505050565b600e5481565b6000600a60009054906101000a900473ffffffffffffffffffffffffffffffffffffffff16905090565b606060078054600181600116156101000203166002900480601f0160208091040260200160405190810160405280929190818152602001828054600181600116156101000203166002900480156119375780601f1061190c57610100808354040283529160200191611937565b820191906000526020600020905b81548152906001019060200180831161191a57829003601f168201915b5050505050905090565b611949612186565b73ffffffffffffffffffffffffffffffffffffffff168273ffffffffffffffffffffffffffffffffffffffff1614156119ea576040517f08c379a00000000000000000000000000000000000000000000000000000000081526004018080602001828103825260198152602001807f4552433732313a20617070726f766520746f2063616c6c65720000000000000081525060200191505060405180910390fd5b80600560006119f7612186565b73ffffffffffffffffffffffffffffffffffffffff1673ffffffffffffffffffffffffffffffffffffffff16815260200190815260200160002060008473ffffffffffffffffffffffffffffffffffffffff1673ffffffffffffffffffffffffffffffffffffffff16815260200190815260200160002060006101000a81548160ff0219169083151502179055508173ffffffffffffffffffffffffffffffffffffffff16611aa4612186565b73ffffffffffffffffffffffffffffffffffffffff167f17307eab39ab6107e8899845ad3d59bd9653f200f220920489ca2b5937696c318360405180821515815260200191505060405180910390a35050565b611b08611b02612186565b836122e6565b611b5d576040517f08c379a00000000000000000000000000000000000000000000000000000000081526004018080602001828103825260318152602001806138016031913960400191505060405180910390fd5b611b69848484846126b5565b50505050565b6003600c600085815260200190815260200160002060000154148015611bab57506003600c600084815260200190815260200160002060000154145b611c00576040517f08c379a00000000000000000000000000000000000000000000000000000000081526004018080602001828103825260258152602001806136966025913960400191505060405180910390fd5b611c0a33826116be565b505050565b6060611c1a82612169565b611c6f576040517f08c379a000000000000000000000000000000000000000000000000000000000815260040180806020018281038252602f8152602001806137b1602f913960400191505060405180910390fd5b6060600860008481526020019081526020016000208054600181600116156101000203166002900480601f016020809104026020016040519081016040528092919081815260200182805460018160011615610100020316600290048015611d185780601f10611ced57610100808354040283529160200191611d18565b820191906000526020600020905b815481529060010190602001808311611cfb57829003601f168201915b505050505090506060611d296113cb565b9050600081511415611d3f578192505050611edb565b600082511115611e105780826040516020018083805190602001908083835b60208310611d815780518252602082019150602081019050602083039250611d5e565b6001836020036101000a03801982511681845116808217855250505050505090500182805190602001908083835b60208310611dd25780518252602082019150602081019050602083039250611daf565b6001836020036101000a0380198251168184511680821785525050505050509050019250505060405160208183030381529060405292505050611edb565b80611e1a85612727565b6040516020018083805190602001908083835b60208310611e505780518252602082019150602081019050602083039250611e2d565b6001836020036101000a03801982511681845116808217855250505050505090500182805190602001908083835b60208310611ea15780518252602082019150602081019050602083039250611e7e565b6001836020036101000a03801982511681845116808217855250505050505090500192505050604051602081830303815290604052925050505b919050565b6000600560008473ffffffffffffffffffffffffffffffffffffffff1673ffffffffffffffffffffffffffffffffffffffff16815260200190815260200160002060008373ffffffffffffffffffffffffffffffffffffffff1673ffffffffffffffffffffffffffffffffffffffff16815260200190815260200160002060009054906101000a900460ff16905092915050565b611f7c612186565b73ffffffffffffffffffffffffffffffffffffffff16611f9a611875565b73ffffffffffffffffffffffffffffffffffffffff1614612023576040517f08c379a00000000000000000000000000000000000000000000000000000000081526004018080602001828103825260208152602001807f4f776e61626c653a2063616c6c6572206973206e6f7420746865206f776e657281525060200191505060405180910390fd5b600073ffffffffffffffffffffffffffffffffffffffff168173ffffffffffffffffffffffffffffffffffffffff1614156120a9576040517f08c379a00000000000000000000000000000000000000000000000000000000081526004018080602001828103825260268152602001806135c26026913960400191505060405180910390fd5b8073ffffffffffffffffffffffffffffffffffffffff16600a60009054906101000a900473ffffffffffffffffffffffffffffffffffffffff1673ffffffffffffffffffffffffffffffffffffffff167f8be0079c531659141344cd1fd0a4f28419497f9722a3daafe3b4186f6b6457e060405160405180910390a380600a60006101000a81548173ffffffffffffffffffffffffffffffffffffffff021916908373ffffffffffffffffffffffffffffffffffffffff16021790555050565b600061217f82600261286e90919063ffffffff16565b9050919050565b600033905090565b816004600083815260200190815260200160002060006101000a81548173ffffffffffffffffffffffffffffffffffffffff021916908373ffffffffffffffffffffffffffffffffffffffff160217905550808273ffffffffffffffffffffffffffffffffffffffff1661220183611394565b73ffffffffffffffffffffffffffffffffffffffff167f8c5be1e5ebec7d5bd14f71427d1e84f3dd0314c0f7b2291e5b200ac8c7c3b92560405160405180910390a45050565b61225082612169565b6122a5576040517f08c379a000000000000000000000000000000000000000000000000000000000815260040180806020018281038252602c81526020018061375c602c913960400191505060405180910390fd5b806008600084815260200190815260200160002090805190602001906122cc9291906134c2565b505050565b60006122df82600001612888565b9050919050565b60006122f182612169565b612346576040517f08c379a000000000000000000000000000000000000000000000000000000000815260040180806020018281038252602c815260200180613632602c913960400191505060405180910390fd5b600061235183611394565b90508073ffffffffffffffffffffffffffffffffffffffff168473ffffffffffffffffffffffffffffffffffffffff1614806123c057508373ffffffffffffffffffffffffffffffffffffffff166123a884610ec5565b73ffffffffffffffffffffffffffffffffffffffff16145b806123d157506123d08185611ee0565b5b91505092915050565b8273ffffffffffffffffffffffffffffffffffffffff166123fa82611394565b73ffffffffffffffffffffffffffffffffffffffff1614612466576040517f08c379a00000000000000000000000000000000000000000000000000000000081526004018080602001828103825260298152602001806137886029913960400191505060405180910390fd5b600073ffffffffffffffffffffffffffffffffffffffff168273ffffffffffffffffffffffffffffffffffffffff1614156124ec576040517f08c379a00000000000000000000000000000000000000000000000000000000081526004018080602001828103825260248152602001806135e86024913960400191505060405180910390fd5b6124f7838383612899565b61250260008261218e565b61255381600160008673ffffffffffffffffffffffffffffffffffffffff1673ffffffffffffffffffffffffffffffffffffffff16815260200190815260200160002061289e90919063ffffffff16565b506125a581600160008573ffffffffffffffffffffffffffffffffffffffff1673ffffffffffffffffffffffffffffffffffffffff1681526020019081526020016000206128b890919063ffffffff16565b506125bc818360026128d29092919063ffffffff16565b50808273ffffffffffffffffffffffffffffffffffffffff168473ffffffffffffffffffffffffffffffffffffffff167fddf252ad1be2c89b69c2b068fc378daa952ba7f163c4a11628f55a4df523b3ef60405160405180910390a4505050565b600061262c8360000183612907565b60001c905092915050565b60008060008061264a866000018661298a565b915091508160001c8160001c9350935050509250929050565b6000612676846000018460001b84612a23565b60001c90509392505050565b600061269082600001612b19565b9050919050565b6126b1828260405180602001604052806000815250612b2a565b5050565b6126c08484846123da565b6126cc84848484612b9b565b612721576040517f08c379a00000000000000000000000000000000000000000000000000000000081526004018080602001828103825260328152602001806135906032913960400191505060405180910390fd5b50505050565b6060600082141561276f576040518060400160405280600181526020017f30000000000000000000000000000000000000000000000000000000000000008152509050612869565b600082905060005b60008214612799578080600101915050600a828161279157fe5b049150612777565b60608167ffffffffffffffff811180156127b257600080fd5b506040519080825280601f01601f1916602001820160405280156127e55781602001600182028036833780820191505090505b50905060006001830390508593505b6000841461286157600a848161280657fe5b0660300160f81b8282806001900393508151811061282057fe5b60200101907effffffffffffffffffffffffffffffffffffffffffffffffffffffffffffff1916908160001a905350600a848161285957fe5b0493506127f4565b819450505050505b919050565b6000612880836000018360001b612db4565b905092915050565b600081600001805490509050919050565b505050565b60006128b0836000018360001b612dd7565b905092915050565b60006128ca836000018360001b612ebf565b905092915050565b60006128fe846000018460001b8473ffffffffffffffffffffffffffffffffffffffff1660001b612f2f565b90509392505050565b600081836000018054905011612968576040517f08c379a000000000000000000000000000000000000000000000000000000000815260040180806020018281038252602281526020018061356e6022913960400191505060405180910390fd5b82600001828154811061297757fe5b9060005260206000200154905092915050565b600080828460000180549050116129ec576040517f08c379a000000000000000000000000000000000000000000000000000000000815260040180806020018281038252602281526020018061370e6022913960400191505060405180910390fd5b60008460000184815481106129fd57fe5b906000526020600020906002020190508060000154816001015492509250509250929050565b60008084600101600085815260200190815260200160002054905060008114158390612aea576040517f08c379a00000000000000000000000000000000000000000000000000000000081526004018080602001828103825283818151815260200191508051906020019080838360005b83811015612aaf578082015181840152602081019050612a94565b50505050905090810190601f168015612adc5780820380516001836020036101000a031916815260200191505b509250505060405180910390fd5b50846000016001820381548110612afd57fe5b9060005260206000209060020201600101549150509392505050565b600081600001805490509050919050565b612b34838361300b565b612b416000848484612b9b565b612b96576040517f08c379a00000000000000000000000000000000000000000000000000000000081526004018080602001828103825260328152602001806135906032913960400191505060405180910390fd5b505050565b6000612bbc8473ffffffffffffffffffffffffffffffffffffffff166131ff565b612bc95760019050612dac565b6060612d3363150b7a0260e01b612bde612186565b888787604051602401808573ffffffffffffffffffffffffffffffffffffffff1681526020018473ffffffffffffffffffffffffffffffffffffffff16815260200183815260200180602001828103825283818151815260200191508051906020019080838360005b83811015612c62578082015181840152602081019050612c47565b50505050905090810190601f168015612c8f5780820380516001836020036101000a031916815260200191505b5095505050505050604051602081830303815290604052907bffffffffffffffffffffffffffffffffffffffffffffffffffffffff19166020820180517bffffffffffffffffffffffffffffffffffffffffffffffffffffffff8381831617835250505050604051806060016040528060328152602001613590603291398773ffffffffffffffffffffffffffffffffffffffff166132129092919063ffffffff16565b90506000818060200190516020811015612d4c57600080fd5b8101908080519060200190929190505050905063150b7a0260e01b7bffffffffffffffffffffffffffffffffffffffffffffffffffffffff1916817bffffffffffffffffffffffffffffffffffffffffffffffffffffffff191614925050505b949350505050565b600080836001016000848152602001908152602001600020541415905092915050565b60008083600101600084815260200190815260200160002054905060008114612eb35760006001820390506000600186600001805490500390506000866000018281548110612e2257fe5b9060005260206000200154905080876000018481548110612e3f57fe5b9060005260206000200181905550600183018760010160008381526020019081526020016000208190555086600001805480612e7757fe5b60019003818190600052602060002001600090559055866001016000878152602001908152602001600020600090556001945050505050612eb9565b60009150505b92915050565b6000612ecb838361322a565b612f24578260000182908060018154018082558091505060019003906000526020600020016000909190919091505582600001805490508360010160008481526020019081526020016000208190555060019050612f29565b600090505b92915050565b6000808460010160008581526020019081526020016000205490506000811415612fd657846000016040518060400160405280868152602001858152509080600181540180825580915050600190039060005260206000209060020201600090919091909150600082015181600001556020820151816001015550508460000180549050856001016000868152602001908152602001600020819055506001915050613004565b82856000016001830381548110612fe957fe5b90600052602060002090600202016001018190555060009150505b9392505050565b600073ffffffffffffffffffffffffffffffffffffffff168273ffffffffffffffffffffffffffffffffffffffff1614156130ae576040517f08c379a00000000000000000000000000000000000000000000000000000000081526004018080602001828103825260208152602001807f4552433732313a206d696e7420746f20746865207a65726f206164647265737381525060200191505060405180910390fd5b6130b781612169565b1561312a576040517f08c379a000000000000000000000000000000000000000000000000000000000815260040180806020018281038252601c8152602001807f4552433732313a20746f6b656e20616c7265616479206d696e7465640000000081525060200191505060405180910390fd5b61313660008383612899565b61318781600160008573ffffffffffffffffffffffffffffffffffffffff1673ffffffffffffffffffffffffffffffffffffffff1681526020019081526020016000206128b890919063ffffffff16565b5061319e818360026128d29092919063ffffffff16565b50808273ffffffffffffffffffffffffffffffffffffffff16600073ffffffffffffffffffffffffffffffffffffffff167fddf252ad1be2c89b69c2b068fc378daa952ba7f163c4a11628f55a4df523b3ef60405160405180910390a45050565b600080823b905060008111915050919050565b6060613221848460008561324d565b90509392505050565b600080836001016000848152602001908152602001600020541415905092915050565b6060824710156132a8576040517f08c379a000000000000000000000000000000000000000000000000000000000815260040180806020018281038252602681526020018061360c6026913960400191505060405180910390fd5b6132b1856131ff565b613323576040517f08c379a000000000000000000000000000000000000000000000000000000000815260040180806020018281038252601d8152602001807f416464726573733a2063616c6c20746f206e6f6e2d636f6e747261637400000081525060200191505060405180910390fd5b600060608673ffffffffffffffffffffffffffffffffffffffff1685876040518082805190602001908083835b602083106133735780518252602082019150602081019050602083039250613350565b6001836020036101000a03801982511681845116808217855250505050505090500191505060006040518083038185875af1925050503d80600081146133d5576040519150601f19603f3d011682016040523d82523d6000602084013e6133da565b606091505b50915091506133ea8282866133f6565b92505050949350505050565b60608315613406578290506134bb565b6000835111156134195782518084602001fd5b816040517f08c379a00000000000000000000000000000000000000000000000000000000081526004018080602001828103825283818151815260200191508051906020019080838360005b83811015613480578082015181840152602081019050613465565b50505050905090810190601f1680156134ad5780820380516001836020036101000a031916815260200191505b509250505060405180910390fd5b9392505050565b828054600181600116156101000203166002900490600052602060002090601f0160209004810192826134f8576000855561353f565b82601f1061351157805160ff191683800117855561353f565b8280016001018555821561353f579182015b8281111561353e578251825591602001919060010190613523565b5b50905061354c9190613550565b5090565b5b80821115613569576000816000905550600101613551565b509056fe456e756d657261626c655365743a20696e646578206f7574206f6620626f756e64734552433732313a207472616e7366657220746f206e6f6e20455243373231526563656976657220696d706c656d656e7465724f776e61626c653a206e6577206f776e657220697320746865207a65726f20616464726573734552433732313a207472616e7366657220746f20746865207a65726f2061646472657373416464726573733a20696e73756666696369656e742062616c616e636520666f722063616c6c4552433732313a206f70657261746f7220717565727920666f72206e6f6e6578697374656e7420746f6b656e4552433732313a20617070726f76652063616c6c6572206973206e6f74206f776e6572206e6f7220617070726f76656420666f7220616c6c436861726163746572206e6f74206d6178206c6576656c2c2063616e6e6f742062726565644552433732313a2062616c616e636520717565727920666f7220746865207a65726f20616464726573734552433732313a206f776e657220717565727920666f72206e6f6e6578697374656e7420746f6b656e456e756d657261626c654d61703a20696e646578206f7574206f6620626f756e64734552433732313a20617070726f76656420717565727920666f72206e6f6e6578697374656e7420746f6b656e4552433732314d657461646174613a2055524920736574206f66206e6f6e6578697374656e7420746f6b656e4552433732313a207472616e73666572206f6620746f6b656e2074686174206973206e6f74206f776e4552433732314d657461646174613a2055524920717565727920666f72206e6f6e6578697374656e7420746f6b656e4552433732313a20617070726f76616c20746f2063757272656e74206f776e65724552433732313a207472616e736665722063616c6c6572206973206e6f74206f776e6572206e6f7220617070726f766564a26469706673582212205f5b93c4beaaa9252c16d0296e6bde6fe568b1d4a53eab8a8c2be43564ac1ae864736f6c63430007050033",
  "immutableReferences": {},
  "source": "pragma solidity 0.7.5;\r\n\r\nimport \"@openzeppelin/contracts/token/ERC721/ERC721.sol\";\r\nimport \"@openzeppelin/contracts/access/Ownable.sol\";\r\n\r\ncontract MintNft is ERC721, Ownable {\r\n    struct Character {\r\n        uint256 level;\r\n        uint256 nextAvaliableEvolutionTime;\r\n    }\r\n\r\n    mapping(uint256 => bool) isUnique;\r\n    mapping(uint256 => Character) public character;\r\n\r\n    event minted(string comment, uint256 id);\r\n\r\n    uint256 public tokenId;\r\n    uint256 public cooldownForEvolutionTime1;\r\n    uint256 public cooldownForEvolutionTime2;\r\n    uint256 public cooldownForEvolutionTime3;\r\n\r\n    constructor() public ERC721(\"Evolution Characters\", \"ECS\") {\r\n        tokenId = 0;\r\n        cooldownForEvolutionTime1 = 10;\r\n        cooldownForEvolutionTime2 = 20;\r\n        cooldownForEvolutionTime3 = 30;\r\n    }\r\n\r\n    function printUniqueAsset(address to, string memory _tokenURI) public {\r\n        require(isUnique[tokenId] != true, \"Asset already exists\");\r\n        isUnique[tokenId] = true;\r\n        uint256 _tokenId = tokenId;\r\n        tokenId++;\r\n        _safeMint(to, _tokenId);\r\n        _setTokenURI(_tokenId, _tokenURI);\r\n        character[_tokenId] = Character(\r\n            1,\r\n            block.timestamp + cooldownForEvolutionTime1\r\n        );\r\n        emit minted(\"Succesfully Minted\", _tokenId);\r\n    }\r\n\r\n    function setTokenURI(uint256 tokenId, string memory _tokenURI) public {\r\n        _setTokenURI(tokenId, _tokenURI);\r\n    }\r\n\r\n    function getTokenURI(uint256 tokenId) public view returns (string memory) {\r\n        return tokenURI(tokenId);\r\n    }\r\n\r\n    function feedNft(uint256 tokenId) public {\r\n        require(\r\n            block.timestamp > character[tokenId].nextAvaliableEvolutionTime\r\n        );\r\n        require(character[tokenId].level != 3, \"Already Max Level\");\r\n\r\n        if (character[tokenId].level == 1) {\r\n            character[tokenId].nextAvaliableEvolutionTime =\r\n                block.timestamp +\r\n                cooldownForEvolutionTime2;\r\n            character[tokenId].level++;\r\n        } else if (character[tokenId].level == 2) {\r\n            character[tokenId].nextAvaliableEvolutionTime =\r\n                block.timestamp +\r\n                cooldownForEvolutionTime3;\r\n            character[tokenId].level++;\r\n        }\r\n    }\r\n\r\n    function breed(\r\n        uint256 tokenId1,\r\n        uint256 tokenId2,\r\n        string memory _tokenURI\r\n    ) public {\r\n        require(\r\n            character[tokenId1].level == 3 && character[tokenId2].level == 3,\r\n            \"Character not max level, cannot breed\"\r\n        );\r\n        printUniqueAsset(msg.sender, _tokenURI);\r\n    }\r\n}\r\n",
  "sourcePath": "D:/Users/victo/Desktop/Crypto Programming/Non-Fungible-Tokens/EvolutionCharacters/contracts/MintNft.sol",
  "compiler": {
    "name": "solc",
    "version": "0.7.5+commit.eb77ed08.Emscripten.clang"
  },
  "schemaVersion": "3.3.3",
  "updatedAt": "2021-03-03T08:04:32.148Z",
  "networkType": "ethereum",
  "devdoc": {
    "kind": "dev",
    "methods": {
      "approve(address,uint256)": {
        "details": "See {IERC721-approve}."
      },
      "balanceOf(address)": {
        "details": "See {IERC721-balanceOf}."
      },
      "baseURI()": {
        "details": "Returns the base URI set via {_setBaseURI}. This will be automatically added as a prefix in {tokenURI} to each token's URI, or to the token ID if no specific URI is set for that token ID."
      },
      "getApproved(uint256)": {
        "details": "See {IERC721-getApproved}."
      },
      "isApprovedForAll(address,address)": {
        "details": "See {IERC721-isApprovedForAll}."
      },
      "name()": {
        "details": "See {IERC721Metadata-name}."
      },
      "owner()": {
        "details": "Returns the address of the current owner."
      },
      "ownerOf(uint256)": {
        "details": "See {IERC721-ownerOf}."
      },
      "renounceOwnership()": {
        "details": "Leaves the contract without owner. It will not be possible to call `onlyOwner` functions anymore. Can only be called by the current owner. NOTE: Renouncing ownership will leave the contract without an owner, thereby removing any functionality that is only available to the owner."
      },
      "safeTransferFrom(address,address,uint256)": {
        "details": "See {IERC721-safeTransferFrom}."
      },
      "safeTransferFrom(address,address,uint256,bytes)": {
        "details": "See {IERC721-safeTransferFrom}."
      },
      "setApprovalForAll(address,bool)": {
        "details": "See {IERC721-setApprovalForAll}."
      },
      "supportsInterface(bytes4)": {
        "details": "See {IERC165-supportsInterface}. Time complexity O(1), guaranteed to always use less than 30 000 gas."
      },
      "symbol()": {
        "details": "See {IERC721Metadata-symbol}."
      },
      "tokenByIndex(uint256)": {
        "details": "See {IERC721Enumerable-tokenByIndex}."
      },
      "tokenOfOwnerByIndex(address,uint256)": {
        "details": "See {IERC721Enumerable-tokenOfOwnerByIndex}."
      },
      "tokenURI(uint256)": {
        "details": "See {IERC721Metadata-tokenURI}."
      },
      "totalSupply()": {
        "details": "See {IERC721Enumerable-totalSupply}."
      },
      "transferFrom(address,address,uint256)": {
        "details": "See {IERC721-transferFrom}."
      },
      "transferOwnership(address)": {
        "details": "Transfers ownership of the contract to a new account (`newOwner`). Can only be called by the current owner."
      }
    },
    "version": 1
  },
  "userdoc": {
    "kind": "user",
    "methods": {},
    "version": 1
  }
}